:020000040800F2
:10000000E02901209D01000859100008D5090008C9
:100010005510000887020008C11900080000000000
:100020000000000000000000000000004116000871
:10003000D9070008000000009D12000831170008D1
:10004000B7010008B7010008B7010008B7010008B0
:10005000B7010008B7010008B7010008B7010008A0
:10006000B7010008B7010008B7010008B701000890
:10007000B7010008B7010008B7010008B701000880
:10008000B7010008B7010008B7010008B701000870
:10009000B7010008B7010008B7010008B701000860
:1000A000B7010008B7010008B7010008B701000850
:1000B000B7010008B7010008B7010008B701000840
:1000C000B7010008B7010008B7010008B701000830
:1000D000B7010008B7010008B7010008B701000820
:1000E000B7010008B7010008B7010008B701000810
:1000F000B7010008B7010008B7010008B701000800
:10010000B7010008B7010008B7010008B7010008EF
:10011000B7010008B7010008B7010008B7010008DF
:10012000B7010008B7010008B7010008B7010008CF
:10013000B7010008B7010008B7010008B7010008BF
:10014000B7010008B7010008B7010008B7010008AF
:10015000B7010008B7010008B7010008B70100089F
:10016000B7010008B7010008B7010008B70100088F
:10017000B7010008B701000885050008B7010008AD
:10018000B7010008B7010008DFF80CD000F04AF80A
:1001900000480047C51D0008E029012006488047A7
:1001A00006480047FEE7FEE7FEE7FEE7FEE7FEE75C
:1001B000FEE7FEE7FEE7FEE7A51700088901000855
:1001C0002DE9F05F0546002092469B46884606468C
:1001D000814640241BE0284641464746224600F01F
:1001E00042F853465A46C01A914110D31146184658
:1001F000224600F029F82D1A67EB01084F462246E7
:100200000120002100F020F817EB00094E41201ECC
:10021000A4F10104DFDC484631462A464346BDE8E6
:10022000F09F0000064C074D06E0E06840F0010337
:1002300094E8070098471034AC42F6D3FFF7A8FFC4
:10024000E41F000804200008202A04DB203A00FAFA
:1002500002F1002070479140C2F1200320FA03F31D
:10026000194390407047202A04DB203A21FA02F01B
:100270000021704721FA02F3D040C2F120029140E0
:1002800008431946704700BFFEE7000000B597B06D
:100290000121084601F014F80121880501F000F859
:1002A0000121172000F0FCFF00220821744800F013
:1002B0006AFB4FF48070159003208DF859000220DE
:1002C0008DF8580000208DF85A0001208DF85B0051
:1002D00015A96B4800F00FFB4FF0A0614FF4C00070
:1002E00001F092F82020159001208DF8580002208E
:1002F0008DF8590000208DF85A0001208DF85B0020
:1003000015A9604800F0F7FA20215E4800F05EFB76
:100310000D2204215A4800F036FB0D2206215848D0
:1003200000F031FB0D220621574800F02CFB0D2276
:100330000721554800F027FB0D220521514800F008
:1003400022FB0D2206214F4800F01DFB0D22062145
:100350004E4800F018FB0D2207214C4800F013FB1B
:100360000D220021474800F00EFB0D2201214548D7
:1003700000F009FB0D220421424800F004FBC020DC
:10038000159002208DF8580003208DF859000020A8
:100390008DF85A0001208DF85B0015A93B4800F04C
:1003A000AAFA7320159015A9364800F0A4FAC020C7
:1003B000159015A9344800F09EFA5020159015A903
:1003C0002F4800F098FA0020ADF84400ADF8460040
:1003D000ADF848008020ADF84A004020ADF84C0050
:1003E0000020ADF84E00ADF8500011A800F0F0F874
:1003F000274800F019F94FF000700290254803904B
:10040000254804900020059043F2F000069000205B
:10041000079008904FF48050099080000A90801156
:100420000B9040020C9004200D9003200E900020B1
:100430000F90109002A9164800F0A2F939208DF80B
:10044000040000208DF805008DF8060001208DF8CD
:10045000070001A800F002FE4FF4C06000F03AFE71
:100460004E208DF8040002208DF805008DF806005E
:1004700001208DF8070001A800F0F0FD17B000BDC5
:100480000000024000100240000402400008024048
:1004900028640240280005501E62002010B501218A
:1004A000124800F0B5F8012000F040F8012000F0FB
:1004B00025F80F484088401E83B20D480088401E32
:1004C00082B20021084600F05BFD002409E00948E3
:1004D00030F8140008490880B4F5967F00D110BDAB
:1004E000641CB4F5163FF2DB00BFF8E72864024055
:1004F000106200201E6200200008006C30B1074925
:10050000096841F00101054A116005E003490968E5
:1005100021F00101014A1160704700000000055000
:1005200001494861704700000000055030B107499B
:10053000096841F48041054A116005E003490968F2
:1005400021F48041014A116070470000000005500D
:1005500010B50146002000230A13012A02D1084CDD
:10056000A36806E0022A02D1054C636801E0044C4E
:10057000236903EA01040CB1012000E0002010BD52
:100580000000055010B50120FFF7E2FF01280BD154
:10059000FFF7C6FF00210D4800F03AF80020FFF7F2
:1005A000C5FF0020FFF7AAFF0220FFF7D1FF0128B7
:1005B00002D10220FFF7B4FF0420FFF7C9FF012892
:1005C00002D10420FFF7ACFF10BD000028640240F8
:1005D00000210E4A126844F201039A430B4B1A6041
:1005E0001A46116840F6F2729143028843881A4312
:1005F00083881A43C3881A4303891A4343891A43D9
:1006000083891A431143014A116070470000055065
:1006100021B1026842F00102026003E0026822F0A8
:100620000102026070470000016821F001010160D1
:100630000021016041608160C1600161212141614F
:100640004A49884204D13D21484A103A91608CE0E1
:1006500046491831884205D14FF47461434A103A33
:10066000916082E041493031884205D14FF47411E4
:100670003E4A103A916078E03C494831884205D1C1
:100680004FF07461394A103A91606EE03749603139
:10069000884204D13649354A103AD16065E0334981
:1006A0007831884204D13349304A103AD1605CE055
:1006B0002E499031884204D12F492C4A103AD160FA
:1006C00053E02A49A831884205D14FF03D51274ACD
:1006D000103AD16049E02949884204D13D21274A96
:1006E000083A116041E025491831884205D14FF49C
:1006F0007461224A083A116037E02049303188425B
:1007000005D14FF474111D4A083A11602DE01B49C0
:100710004831884205D14FF07461184A083A116097
:1007200023E016496031884204D11149134A121F4F
:1007300011601AE011497831884204D10D490F4AFD
:10074000121F116011E00D499031884204D10A490D
:100750000A4A121F116008E00849A831884204D1F2
:100760004FF03D51054A121F116070471060024062
:100770003D000020400F002000003D20106402409A
:1007800010B500220268134B1A40CC680B68234353
:100790004C6923438C692343CC6923430C6A23436C
:1007A0004C6A23438C6A23434C6B23438C6B234357
:1007B0001A430260426922F00702D1E90B34234355
:1007C0001A4342610B6943604B6883608B68C36066
:1007D00010BD00003F801CF07047000051B1820046
:1007E000A2F1C042126842F001038200A2F1C042AD
:1007F000136009E08200A2F1C0421268034B1A4064
:100800008300A3F1C0431A6070470000FEFF0F0091
:10081000D0E901121143C2681143026911434269D0
:10082000114382691143C2691143026A1143426A4A
:100830001143826A1143C26A1143026B1143026879
:100840009200A2F1C0421160816808290BD10168B1
:100850008900A1F1C041096841F0400201688900A6
:10086000A1F1C0410A60416B0968426B526841EADC
:100870000211426B926841EA0221426B928941EA7D
:100880000241426B128A41EA0251426B127D41EAF7
:100890000261426B926911430268521C9200A2F1FC
:1008A000C0421160C16AB1F5804F1BD1816B0968EC
:1008B000826B526841EA0211826B926841EA02211E
:1008C000826B128A41EA0251826B127D41EA026117
:1008D000826B9269114302689200A2F1C042C2F891
:1008E000041107E06FF0704201688900A1F1C04176
:1008F000C1F804217047F0B50A4600210023002406
:1009000000BF3DE0012505FA01F3156805EA03047F
:100910009C4234D105684F000326BE40B5430560B4
:1009200015794E00B5400668354305601579012DEF
:1009300002D01579022D16D185684F000326BE40DE
:10094000B543856055794E00B5408668354385606E
:10095000456801268E40B5434560456896798E40CE
:10096000B6B235434560C5684F000326BE40B54367
:10097000C560D5794E00B540C6683543C560491C91
:100980001029BFD3F0BDF0B5002300244D07ED0EB4
:1009900002FA05F3CE1000F1200555F826504E0757
:1009A000F70E0F26BE40B543CF1000F1200646F8E3
:1009B0002750CE1000F1200555F8265045EA0304D3
:1009C000CE1000F1200545F82640F0BD4183704768
:1009D0000183704700BFFEE710B504462CB14FF409
:1009E00000410548FFF7F4FF04E04FF400410248DE
:1009F000FFF7ECFF10BD00000004024030B50446D4
:100A000000250A484088401E83B208480088401EDE
:100A100082B20021084600F0B3FA00BF02E00448A9
:100A200004806D1CB5F5163FF9D330BD106200206F
:100A30000008006C00B59FB00121084600F050FC92
:100A400001217F2000F02CFC00208DF87A0001208D
:100A50008DF87B0002208DF878008DF87900400336
:100A60001D901DA99B48FFF746FF0C220E219948B7
:100A7000FFF789FF4FF400401D901DA99548FFF72F
:100A80003AFF0C220F219348FFF77DFF01201D90B4
:100A90001DA99048FFF72FFF0C2200218D48FFF77A
:100AA00072FF02201D901DA98A48FFF724FF0C2227
:100AB00001218848FFF767FF80201D901DA9864807
:100AC000FFF719FF0C2207218348FFF75CFF4FF463
:100AD00080701D901DA98048FFF70DFF0C22082192
:100AE0007D48FFF750FF4FF400701D901DA97A4814
:100AF000FFF701FF0C2209217748FFF744FF4FF46D
:100B000080601D901DA97448FFF7F5FE0C220A2194
:100B10007148FFF738FF4FF400601D901DA96E4823
:100B2000FFF7E9FE0C220B216B48FFF72CFF4FF477
:100B300080501D901DA96848FFF7DDFE0C2211466C
:100B40006548FFF720FF4FF400501D901DA9624833
:100B5000FFF7D1FE0C220D215F48FFF714FF4FF481
:100B600080401D901DA95C48FFF7C5FE0C220E2198
:100B70005948FFF708FF4FF400401D901DA9564843
:100B8000FFF7B9FE0C220F215348FFF7FCFE4FF48C
:100B900080701D901DA94F48FFF7ADFE0C22082163
:100BA0004C48FFF7F0FE4FF400701D901DA9494816
:100BB000FFF7A1FE0C2209214648FFF7E4FE4FF49F
:100BC00080601D901DA94348FFF795FE0C220A2165
:100BD0004048FFF7D8FE4FF480501D901DA93F48B4
:100BE000FFF789FE0C2211463C48FFF7CCFE01209E
:100BF0001D901DA93948FFF77EFE0C2200213748C1
:100C0000FFF7C1FE10201D901DA93248FFF773FEAB
:100C10000C2204212F48FFF7B6FE20201D901DA9AD
:100C20002C48FFF768FE0C2205212A48FFF7ABFE8F
:100C300000208DF87A0001208DF878008DF87B0077
:100C400002208DF8790020201D901DA92448FFF76F
:100C500052FE4FF400401D901DA92248FFF74BFEA5
:100C600001200790002008900F20099000200A9092
:100C70000B900C900D900220009000200190052018
:100C800002900020039004900590069006200E909C
:100C900000200F90109010201190002012901490BE
:100CA0001390159016904FF48050179000201890D4
:100CB0004FF48040199000201A9007A81B90CDF89F
:100CC00070D00EA8FFF7A4FD01210620FFF786FDD6
:100CD0001FB000BD000C024000100240001802408E
:100CE000000802400004024010B5FFF7A3FE00F028
:100CF0001FF9CF2000F072F9002000F069F9C1203F
:100D000000F066F9302000F063F9ED2000F066F99C
:100D1000642000F05DF9032000F05AF9122000F081
:100D200057F9812000F054F9E82000F057F98520A8
:100D300000F04EF9102000F04BF97A2000F048F94D
:100D4000CB2000F04BF9392000F042F92C2000F0C4
:100D50003FF9002000F03CF9342000F039F902207E
:100D600000F036F9F72000F039F9202000F030F9D2
:100D7000EA2000F033F9002000F02AF9002000F00A
:100D800027F9C02000F02AF91B2000F021F9C1202A
:100D900000F024F9012000F01BF9C52000F01EF935
:100DA000302000F015F9302000F012F9C72000F0D3
:100DB00015F9B72000F00CF9362000F00FF94820A3
:100DC00000F006F93A2000F009F9552000F000F98A
:100DD000B12000F003F9002000F0FAF81A2000F02A
:100DE000F7F8B62000F0FAF80A2000F0F1F8A22097
:100DF00000F0EEF8F22000F0F1F8002000F0E8F842
:100E0000262000F0EBF8012000F0E2F8E02000F0EE
:100E1000E5F80F2000F0DCF82A2000F0D9F82820AF
:100E200000F0D6F8082000F0D3F80E2000F0D0F83B
:100E3000082000F0CDF8542000F0CAF8A92000F0F6
:100E4000C7F8432000F0C4F80A2000F0C1F80F20D2
:100E500000F0BEF8002000F0BBF8002000F0B8F869
:100E6000002000F0B5F8002000F0B2F8E12000F01A
:100E7000B5F8002000F0ACF8152000F0A9F8172014
:100E800000F0A6F8072000F0A3F8112000F0A0F869
:100E9000062000F09DF82B2000F09AF8562000F074
:100EA00097F83C2000F094F8052000F091F810200D
:100EB00000F08EF80F2000F08BF83F2000F088F84B
:100EC0003F2000F085F80F2000F082F82B2000F082
:100ED00085F8002000F07CF8002000F079F801206F
:100EE00000F076F83F2000F073F82A2000F076F842
:100EF000002000F06DF8002000F06AF8002000F0FB
:100F000067F8EF2000F064F8112000F067F878200F
:100F100000F0E4FE292000F061F800F01BF8012049
:100F2000FFF75AFD4FF6FF70FFF768FD10BD000098
:100F300010B5202006490880642000F0CFFE202054
:100F40000349891E0880322000F0C8FE10BD000051
:100F50001A08024000B52C20084908810120887138
:100F60004FF4A0700880F02048802A2048812B2070
:100F700088816C21362000F03FF800BD106200200F
:100F800030B504460D461149488900F027F8201273
:100F900000F01EF8E0B200F01BF8101200F018F894
:100FA000D0B200F015F80949888900F017F8281226
:100FB00000F00EF8E8B200F00BF8181200F008F894
:100FC000D8B200F005F800F00FF830BD1062002034
:100FD00001490880704700000008006C0149088042
:100FE00070470000FE07006C00B502490889FFF752
:100FF000F5FF00BD10620020024A1080921C118093
:1010000070470000FE07006C1CB50121202000F095
:1010100047F901208DF8040000208DF80600032018
:101020008DF8050000208DF807004FF4C060009097
:1010300069460748FFF75FFC4FF400710448FFF76B
:10104000C7FC4FF480610248FFF7C2FC1CBD0000E2
:101050000014024000BFFEE77047000070B5002199
:1010600000230F22C4781CB3174C246804F4E064F6
:10107000C4F5E064C4F30721C1F10404E3B20A41FA
:1010800044789C40E1B28478144021430C07210E3F
:101090000E4C05786155047804F01F050124AC401E
:1010A00005786D11AD0005F1E025C5F8004109E0B6
:1010B000047804F01F050124AC40054D0678761134
:1010C00045F8264070BD00000CED00E000E400E0B3
:1010D00080E100E002490143024A116070470000CC
:1010E0000000FA050CED00E070B5FFF7CFF800F056
:1010F00099F900F0A6F80A2000F0F0FD00F064F87D
:101100000546294613A000F05DFC0A2000F0E6FD2C
:1011100000F052F80546294614A000F053FC0024C4
:1011200010E0184A02EB44025178164A12F81400F3
:1011300000F08DF820B114A000F044FC012070BD37
:10114000601CC4B2A72CECDB14A000F03BFC002018
:10115000F5E700000D72657475726E2063616D6550
:1011600072204C77207825780A0000000D72657493
:1011700075726E2063616D657220486920782578EC
:101180000A000000941E00080D2057726974655211
:101190006567206661696C6564210A000D205265EF
:1011A00067697374657220636F6E66696720737513
:1011B00063636573730A000008B569460A2000F08E
:1011C0000BF89DF8000008BD08B569460B2000F03B
:1011D00003F89DF8000008BD70B505460C4600F008
:1011E0009DF9422000F0D8F918B900F0B9F90120B2
:1011F00070BD4FF47A7000F07BFD284600F0CCF90A
:1012000018B900F0ADF90220F2E700F0A9F94FF4A7
:101210007A7000F06DFD00F081F9432000F0BCF918
:1012200018B900F09DF90320E2E70A2000F060FD04
:1012300000F014F9207000F00BFE00F091F900208E
:10124000D6E710B58021122000F001F810BD70B56E
:1012500005460C4600F062F9422000F09DF918B9ED
:1012600000F07EF9012070BD0A2000F041FD284603
:1012700000F092F918B900F073F90220F3E70A20A0
:1012800000F036FD204600F087F918B900F068F943
:101290000320E8E700F064F90020E4E7704700006D
:1012A00029B1064A12680243044B1A6004E0034A5B
:1012B00012688243014B1A607047000030380240C8
:1012C00029B1064A12680243044B1A6004E0034A3B
:1012D00012688243014B1A607047000034380240A4
:1012E00029B1064A12680243044B1A6004E0034A1B
:1012F00012688243014B1A60704700003838024080
:1013000029B1064A12680243044B1A6004E0034AFA
:1013100012688243014B1A60704700004038024057
:10132000F0B5002100220024022500260223324FBE
:101330003F6807F00C0121B1042905D0082937D1F5
:1013400005E02E4F076036E02D4F076033E02A4F4F
:101350003F1F3F68C7F38056274F3F1F3F6807F086
:101360003F036EB1264FB7FBF3F7DFF88CC0ACF14B
:10137000040CDCF800C0CCF3881C07FB0CF40CE078
:101380001E4FB7FBF3F7DFF870C0ACF1040CDCF8CC
:1013900000C0CCF3881C07FB0CF4174F3F1F3F68BD
:1013A000C7F301477F1C7D00B4FBF5F7076002E03F
:1013B000124F076000BF00BF0F4F3F6807F0F001FA
:1013C0000909104F7A5C0768D74047600A4F3F68A9
:1013D00007F4E051890A0B4F7A5C4768D740876071
:1013E000054F3F6807F46041490B064F7A5C476838
:1013F000D740C760F0BD0000083802400024F40068
:1014000000127A000800002002460020044B1868F1
:1014100020F0784042EA01031843014B18607047FE
:10142000083802401CB501210220FFF739FF4FF4B4
:101430004060009001208DF8040000208DF8060027
:1014400001208DF8070002208DF80500694602484A
:10145000FFF751FA1CBD00000004024070B50024E3
:1014600000F030F84FF4FA7000F042FC082520E05C
:101470004FF4FA7000F03CFC4FF480601049088093
:101480004FF4FA7000F034FC6006040E0C48083883
:10149000006800F4006008B1601CC4B24FF48060C2
:1014A0000749891C08804FF4FA7000F021FC681E7F
:1014B000C5B2002DDCDC00F019F8204670BD00003C
:1014C000180402401CB54FF40060009000208DF815
:1014D000040001208DF8070002208DF80500694600
:1014E0000148FFF708FA1CBD000402401CB54FF488
:1014F0000060009001208DF8040000208DF80600A7
:1015000001208DF8070002208DF805006946024889
:10151000FFF7F1F91CBD00000004024010B54FF4C4
:1015200000600E490880322000F0E2FB4FF480603A
:101530000A490880322000F0DBFB4FF400600749C5
:10154000891C0880322000F0D3FB4FF480600349EF
:10155000891C0880322000F0CBFB10BD180402402B
:1015600010B54FF400600B490880322000F0C0FB3A
:101570004FF480600749891E0880322000F0B8FBD4
:101580004FF400600349891E0880322000F0B0FB50
:1015900010BD00001A04024070B50646002425E084
:1015A00006FA04F000F0800020B14FF400602349F7
:1015B000088004E04FF400602049891C08804FF443
:1015C000FA7000F095FB4FF480601C4908804FF4DE
:1015D000FA7000F08DFB4FF480601849891C088078
:1015E0004FF4FA7000F084FB601CC4B2082CD7DB07
:1015F000642000F07DFBFFF765FF4FF4FA7000F008
:1016000077FB4FF480600D490880642000F070FB88
:101610000A480838006800F4006008B1002500E0BE
:1016200001254FF480600549891C08804FF4FA7049
:1016300000F05EFBFFF75AFF284670BD1804024019
:10164000704700000CB500200190009034480068FD
:1016500040F480303249086000BF3148006800F42F
:10166000003000900198401C0190009818B9019832
:10167000B0F5A06FF1D12A48006800F4003010B135
:101680000120009001E0002000900098012846D140
:1016900023484030006840F08050214940310860C4
:1016A0002048006840F480401E4908601C4808300B
:1016B00000681B49083108600846006840F4004093
:1016C00008600846006840F4A05008601648091FEA
:1016D0000860081F006840F08070091F086000BFA4
:1016E0000F48006800F000700028F9D040F2056053
:1016F0000E4908600A480830006820F003000849D5
:10170000083108600846006840F00200086000BF29
:1017100003480830006800F00C000828F8D10CBD20
:101720000038024000700040084B4007003C024077
:1017300010B500F065F810BD30B500BF1548006861
:10174000154AB0FBF2F1B1F1807F01D301201DE019
:1017500021F07F40401E4FF0E022506150170F22D1
:10176000002807DA13071D0E0C4B00F00F04241F8E
:101770001D5503E013071C0E094B1C5400BF00202D
:101780004FF0E02290610720106100200028D5D1A1
:1017900030BD00001800002040420F0018ED00E0AE
:1017A00000E400E010B51248006840F00100104964
:1017B000086000200E49083108600D4800680D4996
:1017C00008400B4908600C48091D0860081F0068A4
:1017D00020F48020091F0860002005490C310860B2
:1017E000FFF730FF4FF000600449086010BD0000B3
:1017F00000380240FFFFF6FE1030002408ED00E044
:101800000448006820B103480068401E0149086090
:10181000704700000400002000B587B00121084691
:10182000FFF73EFD01214804FFF76AFD0722022170
:101830001D48FFF7A8F8072203211B48FFF7A3F86C
:101840000820059002208DF819008DF8180000205E
:101850008DF81A0001208DF81B0005A91248FFF72A
:101860004AF80420059002208DF8180005A90E48BA
:10187000FFF741F84FF4165001900020ADF80C002E
:10188000ADF80800ADF80A00ADF810000C20ADF876
:101890000E0001A9054800F025F80121034800F0D9
:1018A00007F807B000BD00000000024000440040FF
:1018B00021B1828942F40052828104E082894DF68E
:1018C000FF731A408281704702460020B1F5007F05
:1018D00000D100BF13880B400BB1012000E00020B5
:1018E000704700002DE9FF4705460E460024A1463B
:1018F00000BFA046B08900B100BF2C8A24F4405438
:10190000F08804432C82AC8941F20C608443B08897
:1019100031890843718908430443AC81AC8A24F4BB
:101920004074B0890443AC826846FFF7F9FC204854
:10193000854202D01F48854202D1DDF80C9001E0BB
:10194000DDF80890A88900F4004040B109EBC90017
:1019500000EB091031684900B0FBF1F707E009EB33
:10196000C90000EB091031688900B0FBF1F7642071
:10197000B7FBF0F004012009642101FB1078A8896D
:1019800000F4004040B1322000EBC800B0FBF1F0A1
:1019900000F00700044308E0322000EB0810642147
:1019A000B0FBF1F000F00F0004432C81BDE8FF878D
:1019B0000010014000140140C1F30802828070470A
:1019C00000BFFEE70FB4054B10B503A9044A029807
:1019D00000F018F810BC5DF814FB0000A11D000811
:1019E0002C00002002E008C8121F08C1002AFAD10A
:1019F00070477047002001E001C1121F002AFBD18F
:101A0000704700002DE9FF4F8DB09B460F460446FE
:101A1000002606E025280BD05A460F999047641CF3
:101A2000761C20780028F5D111B03046BDE8F08F43
:101A30000025A8460122984900E0054314F8013F1B
:101A4000203B02FA03F00842F7D120782E2817D164
:101A500014F8010F45F004052A280ED06FF02F026C
:101A60002078A0F1300109290AD808EB880102EB9F
:101A7000410100EB0108641CF2E757F8048B641C79
:101A800020786C280DD004DC4C2812D06A2811D1A3
:101A900004E074280DD07A280CD10AE045F4001532
:101AA00007E0617845F48015814202D1641C05F598
:101AB0008015641C2278692A45D008DC002AB3D03E
:101AC000582A69D0632A10D0642A08D13BE0702AD2
:101AD00067D0732A13D0752A5CD0782A5CD0104660
:101AE0005A460F999047761CD3E017F8040B8DF8EF
:101AF000000000208DF80100E946012003E057F8BE
:101B0000049B4FF0FF3069074FF0000501D40AE055
:101B10006D1C45450DDA8542FADB19F805100029E0
:101B2000F6D106E06D1C8542FCDB19F80510002992
:101B3000F8D12E4404E019F8010B5A460F9990474A
:101B40006D1EF8D2A5E00A200021CDE90801C5F3F9
:101B5000025002280DD001CFC117031E71F10003FE
:101B60000DDA4FF0000CD0EB0C006CEB01012D23D3
:101B700008E0FF1D27F00707F7E80201EDE72B0556
:101B800004D52B238DF8283001233BE0EB0739D017
:101B90002023F7E70A2000E010200021CDE908010A
:101BA00007E01020002145F00405CDE908014FF0C1
:101BB0000808C5F3025002280FD001CF00214FF0D2
:101BC000000A2B071FD5702A0DD0DDE908C38CF061
:101BD000100C5CEA030C0CD015E0FF1D27F0070782
:101BE000F7E80201EBE740228DF828204FF0010AC8
:101BF0000BE050EA010306D030238DF828308DF831
:101C0000292002239A46582A04D024A20DF1200943
:101C10000B9209E026A2F9E7DDE90823FEF7D0FAE6
:101C20000B9B9B5C09F8013D50EA0102F4D1ADEB3E
:101C3000090020300890680701D44FF00108089986
:101C4000884502DDA8EB010000E000208046002569
:101C500006E00AA85A46405D0F9990476D1C761C15
:101C60005545F6DB04E030205A460F999047761C24
:101C7000B8F10001A8F10108F5DC05E019F8010B45
:101C80005A460F999047761C0899481E08900029DB
:101C9000F4DC641CC5E60000092801003031323351
:101CA0003435363738396162636465660000000098
:101CB0003031323334353637383941424344454682
:101CC000000000004FF47A700349086000BF02482A
:101CD00000680028FBD170470400002000B50246D0
:101CE00001E0FFF7EFFF101EA2F10102F9D100BDE4
:101CF0000349086000BF024909680029FBD1704709
:101D000004000020F8B5214E4CF2C035012407E054
:101D1000315D204604EBD07252101D4B9954A41C27
:101D2000AC42F5DB1B48007868B17F2406E0E0B2E6
:101D30000090694618A0FFF745FE641E002CF6DCF3
:101D400000201449087000240FE0642C05DD1048C1
:101D5000011911A0FFF736FE06E0FF20009069464A
:101D60000DA0FFF72FFE00BF641C05EBD571B4EB8F
:101D7000610FEADB01210948FEF74AFC0120FEF76A
:101D8000D5FB0120FEF7BAFBF8BD00001E62002063
:101D9000300000200100002025730000286402406C
:101DA00070B504460D46E1B20548FFF705FE00BFD9
:101DB00080210348FFF788FD0028F9D0204670BD38
:101DC00000440040FFF7EEFCFFF71EF9FFF7B4FCFC
:101DD000FEF78AFFFFF720FD6420FFF77FFF17A0C3
:101DE000FFF7F0FDFFF780F998B111E04FF40071B3
:101DF0001548FEF7EBFD4FF49670FFF76FFF4FF4B9
:101E000000711148FEF7E4FD4FF49670FFF766FF8E
:101E1000ECE74FF47A70FFF761FF1F20FEF7EEFD4D
:101E2000FEF73CFB08E009480078012804D10020B7
:101E300006490870FFF766FFF5E700000D20313214
:101E400033A3A10D0A00000000140240000000208E
:101E500010B54FF400600E4908803220FFF748FFAC
:101E60004FF480600A4908803220FFF741FF4FF4A9
:101E700080600749891C08803220FFF739FF4FF442
:101E800000600349891C08803220FFF731FF10BD34
:101E9000180402403A0C40D012143280171618046D
:101EA00019021A7A03050C003E00700071017211CC
:101EB0007300A20211817A207B1C7C287D3C7E5518
:101EC0007F68807681808288838F849685A386AFA1
:101ED00087C488D789E813E0000010000D0014289B
:101EE000A505AB072475256326A59F78A068A103E7
:101EF000A6DFA7DFA8F0A990AA9413E50E610F4B07
:101F000016021E07210222912907330B350B371DBC
:101F10003871392A3C784D404E2069556B0A741946
:101F20008D4F8E008F0090009100920096009A8055
:101F3000B084B10CB20EB382B80A431444F04534F5
:101F400046584728483A59885A885B445C675D4937
:101F50005E0E640465206605940495086C0A6D5550
:101F60006E116F9F6A400140024013E715084F80D1
:101F7000508051005222535E5480550A564F589E4D
:101F800041083F05750576E14C0F770A3DC24B09C4
:101F9000C960413834113B02A489960097309820DB
:101FA00099309A849B299C039D4C9E3F780479012B
:101FB000C8F0790FC8007910C87E790AC880790BFB
:101FC000C801790CC80F790DC8207909C880790239
:101FD000C8C07903C8407905C830792609023B4258
:101FE0000000000004200008000000203000000075
:101FF000E41900083420000830000020B029010056
:10200000F4190008000000000000000000000000BB
:10201000010203040102030406070809007A030A07
:102020000000000000000000010203040607080988
:0420300000000000AC
:040000050800018965
:00000001FF
