:020000040800F2
:10000000480400209D010008ED150008750D00084A
:10001000E9150008930200083122000800000000E2
:10002000000000000000000000000000351C000877
:10003000590700080000000091180008311E000850
:10004000B7010008B7010008B7010008B7010008B0
:10005000B7010008B7010008B7010008B7010008A0
:10006000B7010008B7010008B7010008B701000890
:10007000B7010008B7010008B7010008B701000880
:10008000B7010008B7010008B7010008B701000870
:10009000B7010008B7010008B7010008B701000860
:1000A000B7010008B7010008B7010008B701000850
:1000B000B7010008011F0008B7010008B7010008D8
:1000C000B7010008B7010008B7010008B701000830
:1000D000B7010008B7010008B7010008B701000820
:1000E000B7010008B7010008B7010008B701000810
:1000F000B7010008B7010008B7010008B701000800
:10010000B7010008B7010008B7010008B7010008EF
:10011000B7010008B7010008B7010008B7010008DF
:10012000B701000889050008B7010008B7010008F9
:10013000B7010008B7010008B7010008B7010008BF
:10014000B7010008B7010008B7010008B7010008AF
:10015000B7010008B7010008B7010008B70100089F
:10016000B7010008B7010008B7010008B70100088F
:10017000B7010008B7010008D9040008B70100085A
:10018000B7010008B7010008DFF80CD000F050F804
:100190000048004799250008480400200648804789
:1001A00006480047FEE7FEE7FEE7FEE7FEE7FEE75C
:1001B000FEE7FEE7FEE7FEE7A51E0008890100084E
:1001C000421C10F8011B0029FBD1801A70472DE951
:1001D000F05F0546002092469B46884606468146CB
:1001E00040241BE0284641464746224600F041F89D
:1001F00053465A46C01A914110D31146184622461A
:1002000000F028F82D1A67EB01084F46224601201E
:10021000002100F01FF817EB00094E41201EA4F149
:100220000104DFDC484631462A464346BDE8F09FDC
:10023000064C074D06E0E06840F0010394E8070033
:1002400098471034AC42F6D3FFF7A2FF0C3D0008EC
:100250002C3D0008202A04DB203A00FA02F100209D
:1002600070479140C2F1200320FA03F319439040F4
:100270007047202A04DB203A21FA02F0002170475F
:1002800021FA02F3D040C2F12002914008431946FE
:10029000704700BFFEE7000000B587B00D220421C3
:1002A0004D4800F088FB0D2206214B4800F083FBEF
:1002B0000D220621494800F07EFB0D220721474808
:1002C00000F079FB0D220521454800F074FB0D225A
:1002D0000621434800F06FFB0D220621414800F043
:1002E0006AFB0D2207213F4800F065FB0D2200212B
:1002F0003B4800F060FB0D220121394800F05BFB18
:100300000D220421364800F056FB0121084601F079
:10031000D1FA0121172001F0BDFAC020059002207A
:100320008DF8180003208DF8190000208DF81A00B0
:1003300001208DF81B0005A92A4800F0F4FA73206B
:10034000059005A9264800F0EEFAC020059005A901
:10035000224800F0E8FA5020059005A91E4800F058
:10036000E2FA0020ADF80400ADF80E00ADF8100080
:10037000ADF80C00ADF80800ADF806008020ADF82F
:100380000A0001A800F0E0F80121084600F0CAF8D0
:100390000121102000F0C6F80121082000F0C2F869
:1003A0004FF4C06001F060F94E208DF8000003208A
:1003B0008DF8010002208DF8020001208DF8030065
:1003C000684601F015F9012000F04CF8012000F01A
:1003D0002BF807B000BD00000000024000040240FE
:1003E000001002400008024010B50D484088401E31
:1003F00083B20B480088401E82B20021084600F0FC
:10040000F7FF0021084600F0C1FF01F0B7F8012115
:10041000044800F0E3F8012000F006F810BD0000E9
:10042000380000202864024030B10749096841F0D3
:100430000101054A116005E00349096821F0010145
:10044000014A1160704700000000055001494861F1
:1004500070470000000005500149486170470000E6
:100460000000055030B10749096841F48041054A50
:10047000116005E00349096821F48041014A1160D7
:10048000704700000000055010B501460020002311
:100490000A13012A02D1084CA36806E0022A02D1FD
:1004A000054C636801E0044C236903EA01040CB1C4
:1004B000012000E0002010BD000005500146002092
:1004C0000022044B1B6903EA01020AB1012000E08B
:1004D000002070470000055010B500240120FFF7F0
:1004E000D3FF012801D1FFF7B1FF0820FFF7E6FF96
:1004F00010B10820FFF7B0FF1020FFF7DFFF38B181
:100500001020FFF7A9FF06480078401C0449087036
:100510000420FFF7D3FF10B10420FFF79DFF10BDAB
:100520000000002029B1074AD2680243054BDA6077
:1005300006E0044AD268C3439BB21A40014BDA601A
:10054000704700000000055000210E4A126844F276
:1005500001039A430B4B1A601A46116840F6F27277
:100560009143028843881A4383881A43C3881A43F5
:1005700003891A4343891A4383891A431143014A61
:10058000116070470000055010B50549054800F09E
:1005900031F8012803D10249024800F005F810BDE6
:1005A00000080010286402400246094B9A4201D21A
:1005B000084801E00648103801F000531BB1064B13
:1005C0000B40C36002E0044B0B40836070470000A7
:1005D00010640240006002407D0F7D0F21B102686F
:1005E00042F00102026003E0026822F001020260B0
:1005F0007047000030B503460A46002000240B4D2A
:10060000AB4201D20A4901E00849103902F0005515
:100610000DB14C6800E00C68064D2C4004EA020560
:100620000DB1012000E0002030BD00001064024048
:10063000006002407D0F7D0F10B501F080034BB1CB
:1006400022B1436943F08003436103E0436923F02F
:100650008003436180290BD02AB1036801F01E0496
:100660002343036004E0036801F01E04A343036016
:1006700010BD000010B500220268134B1A40CC6870
:100680000B6823434C6923438C692343CC69234380
:100690000C6A23434C6A23438C6A23434C6B2343E9
:1006A0008C6B23431A430260426922F00702D1E9AE
:1006B0000B3423431A4342610B6943604B688360E8
:1006C0008B68C36010BD00003F801CF0F0B591B096
:1006D00007460C4615461E460121880501F0DAF84A
:1006E0004FF0007002901A48039004970020059084
:1006F0000694079008964FF4805009900A950011CF
:100700000B9040020C9004200D9003200E900020CE
:100710000F90109002A90F48FFF7ACFF01210D4880
:10072000FFF75CFF012210210A48FFF785FF3920FF
:100730008DF8040000208DF805008DF806000120DA
:100740008DF8070001A800F053FF11B0F0BD0000C4
:100750002800055028640240704700003EB504465A
:100760001F2000901F48028814230021084600F033
:1007700045FB1F2000901B4843880288408814389E
:1007800081B2002000F03AFB4FF6FF701649088056
:10079000012010211F234FF6FF72CDE90041029086
:1007A0000221002000F0C2FA012010210FA2CDE9A1
:1007B000002102900B484088123881B21F234FF667
:1007C000FF72002000F0B2FA002000900548408837
:1007D000143883B2034802881421002000F00EFB75
:1007E0003EBD00003800002008000020544F45495D
:1007F00043203339392C446F75626C652050656134
:10080000726C206D696C6B207465610051B182005F
:10081000A2F1C042126842F001038200A2F1C0427C
:10082000136009E08200A2F1C0421268034B1A4033
:100830008300A3F1C0431A6070470000FEFF0F0061
:10084000D0E901121143C2681143026911434269A0
:10085000114382691143C2691143026A1143426A1A
:100860001143826A1143C26A1143026B1143026849
:100870009200A2F1C0421160816808290BD1016881
:100880008900A1F1C041096841F040020168890076
:10089000A1F1C0410A60416B0968426B526841EAAC
:1008A0000211426B926841EA0221426B928941EA4D
:1008B0000241426B128A41EA0251426B127D41EAC7
:1008C0000261426B926911430268521C9200A2F1CC
:1008D000C0421160C16AB1F5804F1BD1816B0968BC
:1008E000826B526841EA0211826B926841EA0221EE
:1008F000826B128A41EA0251826B127D41EA0261E7
:10090000826B9269114302689200A2F1C042C2F860
:10091000041107E06FF0704201688900A1F1C04145
:10092000C1F804217047F0B50A46002100230024D5
:1009300000BF3DE0012505FA01F3156805EA03044F
:100940009C4234D105684F000326BE40B543056084
:1009500015794E00B5400668354305601579012DBF
:1009600002D01579022D16D185684F000326BE40AE
:10097000B543856055794E00B5408668354385603E
:10098000456801268E40B5434560456896798E409E
:10099000B6B235434560C5684F000326BE40B54337
:1009A000C560D5794E00B540C6683543C560491C61
:1009B0001029BFD3F0BDF0B5002300244D07ED0E84
:1009C00002FA05F3CE1000F1200555F826504E0727
:1009D000F70E0F26BE40B543CF1000F1200646F8B3
:1009E0002750CE1000F1200555F8265045EA0304A3
:1009F000CE1000F1200545F82640F0BD4183704738
:100A0000018370472DE9FC5F0546884691469A466A
:100A1000DDF830B000952E20019000245FE004EB5B
:100A20000410374911F810009BF80010884253D188
:100A300004EB0410324901EB400040789BF80110B0
:100A4000884249D108F10F0083B205F10F0082B24C
:100A50004146284600F0CCFC00263BE0002734E06D
:100A60000D9890B904EB0410254901EB4000801C5F
:100A7000805D80213941084018B1484600F0B8F93E
:100A800021E0504600F0B4F91DE01E48A0F80090A7
:100A900004EB04101A4901EB4000801C805D8021AA
:100AA0003941084018B14146284600F093F9681CC6
:100AB00085B20098281A102805D1009D08F1010080
:100AC0001FFA80F803E0781CC7B2082FC8DB00BF0C
:100AD000701CC6B2202EC1DB00BF601C84B201981E
:100AE00084429CDB08484088401E83B20648008848
:100AF000401E82B20021084600F07AFCBDE8FC9F4F
:100B0000E032000808000020380000202DE9FC5FDA
:100B10000546884691469A46DDF830B00095072094
:100B20000190002467E004EB840000EB44103A4994
:100B300011F810009BF80010884259D104EB840092
:100B400000EB4410344901EB400040789BF8011061
:100B500088424DD108F1170083B205F1170082B227
:100B60004146284600F044FC00263FE0002738E0DC
:100B70000D98A0B904EB840000EB4410264901EB6A
:100B80004000801C805D80213941084018B14846F2
:100B900000F02EF923E0504600F02AF91FE01F482C
:100BA000A0F8009004EB840000EB44101A4901EB1C
:100BB0004000801C805D80213941084018B14146C9
:100BC000284600F007F9681C85B20098281A1828F2
:100BD00005D1009D08F101001FFA80F803E0781CA0
:100BE000C7B2082FC4DB00BF701CC6B2482EBDDBE5
:100BF00000BF601C84B20198844294DB084840889E
:100C0000401E83B206480088401E82B2002108467A
:100C100000F0EEFBBDE8FC9FFC3800080800002057
:100C2000380000202DE9FC5F0546884691469A462B
:100C3000DDF830B000950420019000245FE004EB63
:100C40008410374911F810009BF80010884253D1E6
:100C500004EB8410324901EB400040789BF801100E
:100C6000884249D108F11F0083B205F11F0082B20A
:100C70004146284600F0BCFB00263BE0002734E05C
:100C80000D9890B904EB8410254901EB4000801CBD
:100C9000805D80213941084018B1484600F0A8F82D
:100CA00021E0504600F0A4F81DE01E48A0F8009096
:100CB00004EB84101A4901EB4000801C805D802108
:100CC0003941084018B14146284600F083F8681CB5
:100CD00085B20098281A202805D1009D08F101004E
:100CE0001FFA80F803E0781CC7B2082FC8DB00BFEA
:100CF000701CC6B2802EC1DB00BF601C84B201989C
:100D000084429CDB08484088401E83B20648008825
:100D1000401E82B20021084600F06AFBBDE8FC9F3D
:100D2000023B000808000020380000202DE9FF4F9A
:100D300083B004460F469046DDE9119A109D28467F
:100D4000FFF73EFA86B20A490988A1EBC60000EB1C
:100D5000D071C1F34F0B04EB0B0188B28DE8200674
:100D600042463946069B00F0DDFF07B0BDE8F08F34
:100D70003800002000BFFEE710B504462CB14FF448
:100D800000410548FFF73CFE04E04FF400410248F3
:100D9000FFF734FE10BD00000004024030B50446E9
:100DA00000250A484088401E83B208480088401E3B
:100DB00082B20021084600F01BFB00BF02E004489D
:100DC00004806D1CB5F5163FF9D330BD3800002006
:100DD0000008006C30B504460D462946204600F058
:100DE000D5FA0248008800F0BDFB30BD08000020A5
:100DF00000B50246104600F0B5FB00BD2DE9F84FE6
:100E000006460F4614461D46DDF82890A01B401CE0
:100E10001FFA80FAE81B401C1FFA80FB0BFB0AF04C
:100E20000090681E83B2601E82B23946304600F0E0
:100E3000DFFA4FF0000804E00A48A0F8009008F13B
:100E4000010800988045F7D307484088401E83B2C8
:100E500005480088401E82B20021084600F0C8FA0A
:100E6000BDE8F88F0008006C3800002000B59FB086
:100E70000121084600F02EFD01217F2000F00AFD2F
:100E800000208DF87A0001208DF87B0002208DF87B
:100E900078008DF8790040031D901DA99B48FFF74D
:100EA00042FD0C220E219948FFF785FD4FF40040CA
:100EB0001D901DA99548FFF736FD0C220F21934880
:100EC000FFF779FD01201D901DA99048FFF72BFD2C
:100ED0000C2200218D48FFF76EFD02201D901DA9F8
:100EE0008A48FFF720FD0C2201218848FFF763FDA7
:100EF00080201D901DA98648FFF715FD0C220721B3
:100F00008348FFF758FD4FF480701D901DA980485D
:100F1000FFF709FD0C2208217D48FFF74CFD4FF437
:100F200000701D901DA97A48FFF7FDFC0C220921D5
:100F30007748FFF740FD4FF480601D901DA974486D
:100F4000FFF7F1FC0C220A217148FFF734FD4FF442
:100F500000601D901DA96E48FFF7E5FC0C220B21D7
:100F60006B48FFF728FD4FF480501D901DA968487D
:100F7000FFF7D9FC0C2211466548FFF71CFD4FF422
:100F800000501D901DA96248FFF7CDFC0C220D21D9
:100F90005F48FFF710FD4FF480401D901DA95C488D
:100FA000FFF7C1FC0C220E215948FFF704FD4FF456
:100FB00000401D901DA95648FFF7B5FC0C220F21DB
:100FC0005348FFF7F8FC4FF480701D901DA94F485F
:100FD000FFF7A9FC0C2208214C48FFF7ECFC4FF46A
:100FE00000701D901DA94948FFF79DFC0C220921A6
:100FF0004648FFF7E0FC4FF480601D901DA9434870
:10100000FFF791FC0C220A214048FFF7D4FC4FF473
:1010100080501D901DA93F48FFF785FC0C2211460A
:101020003C48FFF7C8FC01201D901DA93948FFF777
:101030007AFC0C2200213748FFF7BDFC10201D90E0
:101040001DA93248FFF76FFC0C2204212F48FFF73F
:10105000B2FC20201D901DA92C48FFF764FC0C2237
:1010600005212A48FFF7A7FC00208DF87A0001200F
:101070008DF878008DF87B0002208DF87900202013
:101080001D901DA92448FFF74EFC4FF400401D9011
:101090001DA92248FFF747FC012007900020089077
:1010A0000F20099000200A900B900C900D900220C8
:1010B00000900020019005200290002003900490F1
:1010C0000590069006200E9000200F9010901020A2
:1010D00011900020129014901390159016904FF4D8
:1010E00080501790002018904FF4804019900020F5
:1010F0001A9007A81B90CDF870D00EA8FFF7A0FBA0
:1011000001210620FFF782FB1FB000BD000C02404A
:101110000010024000180240000802400004024093
:1011200010B5FFF7A3FE00F01FF9CF2000F020FA62
:10113000002000F017FAC12000F014FA302000F06F
:1011400011FAED2000F014FA642000F00BFA0320ED
:1011500000F008FA122000F005FA812000F002FAEF
:10116000E82000F005FA852000F0FCF9102000F0DE
:10117000F9F97A2000F0F6F9CB2000F0F9F93920DE
:1011800000F0F0F92C2000F0EDF9002000F0EAF971
:10119000342000F0E7F9022000F0E4F9F72000F035
:1011A000E7F9202000F0DEF9EA2000F0E1F9002064
:1011B00000F0D8F9002000F0D5F9C02000F0D8F9EF
:1011C0001B2000F0CFF9C12000F0D2F9012000F07F
:1011D000C9F9C52000F0CCF9302000F0C3F9302067
:1011E00000F0C0F9C72000F0C3F9B72000F0BAF949
:1011F000362000F0BDF9482000F0B4F93A2000F0A4
:10120000B7F9552000F0AEF9B12000F0B1F9002097
:1012100000F0A8F91A2000F0A5F9B62000F0A8F90E
:101220000A2000F09FF9A22000F09CF9F22000F0C3
:101230009FF9002000F096F9262000F099F901208E
:1012400000F090F9E02000F093F90F2000F08AF907
:101250002A2000F087F9282000F084F9082000F007
:1012600081F90E2000F07EF9082000F07BF954206F
:1012700000F078F9A92000F075F9432000F072F928
:101280000A2000F06FF90F2000F06CF9002000F048
:1012900069F9002000F066F9002000F063F90020F1
:1012A00000F060F9E12000F063F9002000F05AF945
:1012B000152000F057F9172000F054F9072000F02E
:1012C00051F9112000F04EF9062000F04BF92B20C7
:1012D00000F048F9562000F045F93C2000F042F9B2
:1012E000052000F03FF9102000F03CF90F2000F03D
:1012F00039F93F2000F036F93F2000F033F90F2094
:1013000000F030F92B2000F033F9002000F02AF92A
:10131000002000F027F9012000F024F93F2000F020
:1013200021F92A2000F024F9002000F01BF9002008
:1013300000F018F9002000F015F9EF2000F012F984
:10134000112000F015F9782001F000F9292000F0B3
:101350000FF900F037F80120FFF70EFD4FF6FF7090
:10136000FFF71CFD10BD000010B5202006490880C5
:10137000642001F0EBF820200349891E0880322008
:1013800001F0E4F810BD00001A08024000B5024662
:101390000B460B49488900F0EBF8101200F0E2F818
:1013A000D0B200F0DFF80649888900F0E1F81812A1
:1013B00000F0D8F8D8B200F0D5F800F0DFF800BDA2
:1013C0003800002000B52C200849088101208871D0
:1013D0004FF4A0700880F02048802A2048812B20FC
:1013E00088816C21362000F0D1F800BD3800002043
:1013F00030B504460D461149488900F0B9F820126D
:1014000000F0B0F8E0B200F0ADF8101200F0AAF869
:10141000D0B200F0A7F80949888900F0A9F828128D
:1014200000F0A0F8E8B200F09DF8181200F09AF869
:10143000D8B200F097F800F0A1F830BD38000020D5
:101440002DE9FF4F83B081468A469346DDE910645B
:10145000404800880290A6F12000C6B204EBD47088
:1014600009EB6000401E82B20AEB0400401E83B20A
:10147000514648460194FFF7BBFF129850BB002528
:1014800025E00C2C07D106EB4600334901EB800028
:1014900010F8058004E0314800EB061010F80580D4
:1014A00000270DE008F0010018B15846FFF7A0FC36
:1014B00002E00698FFF79CFC4FEA6808781CC7B268
:1014C00004EBD471B7EB610FECDB681CC5B2A5422D
:1014D000D7DB2DE0002529E00C2C07D106EB4600D8
:1014E0001D4901EB800010F8058004E01B4800EB6B
:1014F000061010F80580002711E01648A0F800B08B
:1015000008F0010038B10AEB050291B209EB0702BD
:1015100090B2FFF75FFC4FEA6808781CC7B204EB93
:10152000D471B7EB610FE8DB681CC5B2A542D3DB11
:101530000849029808800A484088401E83B208483B
:101540000088401E82B200210846FFF751FF07B015
:10155000BDE8F08F080000207C280008F02C00086F
:101560003800002001490880704700000008006C26
:101570000149088070470000FE07006C00B5024971
:101580000889FFF7F5FF00BD38000020024A1080EF
:10159000921C118070470000FE07006C1CB50121F1
:1015A000202000F077F901208DF8040000208DF84C
:1015B000060003208DF8050000208DF807004FF489
:1015C000C060009069460748FFF7ADF94FF400711D
:1015D0000448FFF715FA4FF480610248FFF710FA4C
:1015E0001CBD00000014024000BFFEE77047000071
:1015F00070B5002100230F22C4781CB3174C246857
:1016000004F4E064C4F5E064C4F30721C1F1040408
:10161000E3B20A4144789C40E1B28478144021430B
:101620000C07210E0E4C05786155047804F01F0557
:101630000124AC4005786D11AD0005F1E025C5F839
:10164000004109E0047804F01F050124AC40054D79
:101650000678761145F8264070BD00000CED00E0DC
:1016600000E400E080E100E002490143024A116029
:10167000704700000000FA050CED00E070B500F0C6
:10168000E1F8FEF709FE00F0C7F900234FF400521D
:101690000A211948FFF71AF800F0A7F80A2000F00D
:1016A00055FF00F065F80546294614A000F0C2FD7C
:1016B0000A2000F04BFF00F053F80546294615A01C
:1016C00000F0B8FD002410E0184A02EB4402517803
:1016D000164A12F8140000F08EF820B114A000F0A1
:1016E000A9FD012070BD601CC4B2A42CECDB15A0C8
:1016F00000F0A0FD0020F5E70008006C0D72657495
:1017000075726E2063616D6572204C772078257844
:101710000A0000000D72657475726E2063616D655C
:1017200072204869207825780A00000030270008D8
:101730000D205772697465526567206661696C6532
:1017400064210A000D205265676973746572206315
:101750006F6E66696720737563636573730A000053
:1017600008B569460A2000F00BF89DF8000008BD96
:1017700008B569460B2000F003F89DF8000008BD8D
:1017800070B505460C4600F0C3F9422000F0FEF9A2
:1017900018B900F0DFF9012070BD4FF47A7000F045
:1017A000DFFE284600F0F2F918B900F0D3F9022064
:1017B000F2E700F0CFF94FF47A7000F0D1FE00F0BC
:1017C000A7F9432000F0E2F918B900F0C3F90320AB
:1017D000E2E70A2000F0C4FE00F03AF9207000F0C1
:1017E00085FF00F0B7F90020D6E710B58021122060
:1017F00000F001F810BD70B505460C4600F088F900
:10180000422000F0C3F918B900F0A4F9012070BD1E
:101810000A2000F0A5FE284600F0B8F918B900F03B
:1018200099F90220F3E70A2000F09AFE204600F022
:10183000ADF918B900F08EF90320E8E700F08AF955
:101840000020E4E71CB50121084600F023F800223F
:1018500008210E48FFF7AFF84FF480700090032086
:101860008DF8050002208DF8040000208DF8060098
:1018700001208DF8070069460448FFF754F84FF03F
:10188000A0614FF4C00000F0B9F81CBD0000024098
:101890007047000029B1064A12680243044B1A60DF
:1018A00004E0034A12688243014B1A60704700004B
:1018B0003038024029B1064A12680243044B1A60CC
:1018C00004E0034A12688243014B1A60704700002B
:1018D0003438024029B1064A12680243044B1A60A8
:1018E00004E0034A12688243014B1A60704700000B
:1018F0003838024029B1064A12680243044B1A6084
:1019000004E0034A12688243014B1A6070470000EA
:1019100040380240F0B500210022002402250026B4
:101920000223324F3F6807F00C0121B1042905D092
:10193000082937D105E02E4F076036E02D4F0760AC
:1019400033E02A4F3F1F3F68C7F38056274F3F1FA2
:101950003F6807F03F036EB1264FB7FBF3F7DFF8A0
:101960008CC0ACF1040CDCF800C0CCF3881C07FB85
:101970000CF40CE01E4FB7FBF3F7DFF870C0ACF1CE
:10198000040CDCF800C0CCF3881C07FB0CF4174FE8
:101990003F1F3F68C7F301477F1C7D00B4FBF5F78D
:1019A000076002E0124F076000BF00BF0F4F3F68A3
:1019B00007F0F0010909104F7A5C0768D7404760CB
:1019C0000A4F3F6807F4E051890A0B4F7A5C476879
:1019D000D7408760054F3F6807F46041490B064FC9
:1019E0007A5C4768D740C760F0BD00000838024005
:1019F0000024F40000127A000E00002002460020AD
:101A0000044B186820F0784042EA01031843014B68
:101A100018607047083802401CB501210220FFF70A
:101A200039FF4FF44060009001208DF80400002041
:101A30008DF8060001208DF8070002208DF80500C2
:101A400069460248FEF76FFF1CBD0000000402401B
:101A500070B5002400F030F84FF4FA7000F080FD0B
:101A6000082520E04FF4FA7000F07AFD4FF4806012
:101A7000104908804FF4FA7000F072FD6006040E01
:101A80000C480838006800F4006008B1601CC4B25B
:101A90004FF480600749891C08804FF4FA7000F009
:101AA0005FFD681EC5B2002DDCDC00F019F8204691
:101AB00070BD0000180402401CB54FF40060009097
:101AC00000208DF8040001208DF8070002208DF819
:101AD000050069460148FEF726FF1CBD00040240D0
:101AE0001CB54FF40060009001208DF80400002028
:101AF0008DF8060001208DF8070002208DF8050002
:101B000069460248FEF70FFF1CBD000000040240BA
:101B100010B54FF400600E490880322000F020FD1F
:101B20004FF480600A490880322000F019FD4FF41C
:101B300000600749891C0880322000F011FD4FF435
:101B400080600349891C0880322000F009FD10BD27
:101B50001804024010B54FF400600B490880322091
:101B600000F0FEFC4FF480600749891E0880322097
:101B700000F0F6FC4FF400600349891E0880322013
:101B800000F0EEFC10BD00001A04024070B50646DD
:101B9000002425E006FA04F000F0800020B14FF4A4
:101BA00000602349088004E04FF400602049891C4C
:101BB00008804FF4FA7000F0D3FC4FF480601C49A9
:101BC00008804FF4FA7000F0CBFC4FF480601849A5
:101BD000891C08804FF4FA7000F0C2FC601CC4B28B
:101BE000082CD7DB642000F0BBFCFFF765FF4FF447
:101BF000FA7000F0B5FC4FF480600D490880642055
:101C000000F0AEFC0A480838006800F4006008B133
:101C1000002500E001254FF480600549891C0880FB
:101C20004FF4FA7000F09CFCFFF75AFF284670BD95
:101C300018040240704700000CB50020019000908D
:101C40003448006840F480303249086000BF3148B1
:101C5000006800F4003000900198401C019000984A
:101C600018B90198B0F5A06FF1D12A48006800F4C6
:101C7000003010B10120009001E000200090009899
:101C8000012846D123484030006840F08050214967
:101C9000403108602048006840F480401E490860D8
:101CA0001C48083000681B49083108600846006875
:101CB00040F4004008600846006840F4A050086006
:101CC0001648091F0860081F006840F08070091F4F
:101CD000086000BF0F48006800F000700028F9D0CD
:101CE00040F205600E4908600A480830006820F09C
:101CF00003000849083108600846006840F0020007
:101D0000086000BF03480830006800F00C00082895
:101D1000F8D10CBD0038024000700040084B40076D
:101D2000003C02402DE9FF4F83B0064688469146AD
:101D3000DDE91147109DB2464FF0000B71E0BBF199
:101D4000000F40D104EBD471384A1288A2EB610134
:101D5000B14204DB35494988091B414502DA07B025
:101D6000BDE8F08F2878802802DD4FF0010B58E0A5
:101D700028780D2806D108EB04001FFA80F8564693
:101D80006D1C1EE0102C0DDD102128788DE88300DD
:101D90004A4641463046069BFFF752FB06F10800D3
:101DA00086B20EE028788DE891004A4641463046DA
:101DB000069BFFF745FB204604EBD07106EB610163
:101DC0008EB26D1C2DE019480088001BB04204DB68
:101DD00016484088001B404500DAC0E74FF0000B72
:101DE000202C08D1CDE900574A4641463046069B93
:101DF000FEF718FF12E0182C08D1CDE900574A462B
:101E000041463046069BFEF781FE07E0CDE90057CC
:101E10004A4641463046069BFEF7F4FDAD1C30199C
:101E200086B2287800288AD100BF98E738000020C1
:101E300010B500F01DF910BD30B500BF15480068A1
:101E4000154AB0FBF2F1B1F1807F01D301201DE012
:101E500021F07F40401E4FF0E022506150170F22CA
:101E6000002807DA13071D0E0C4B00F00F04241F87
:101E70001D5503E013071C0E094B1C5400BF002026
:101E80004FF0E02290610720106100200028D5D19A
:101E900030BD00002000002040420F0018ED00E09F
:101EA00000E400E010B51248006840F0010010495D
:101EB000086000200E49083108600D4800680D498F
:101EC00008400B4908600C48091D0860081F00689D
:101ED00020F48020091F0860002005490C310860AB
:101EE000FFF7AAFE4FF000600449086010BD000033
:101EF00000380240FFFFF6FE1030002408ED00E03D
:101F000010B50121084800F056F8012807D107480C
:101F1000017807A000F08EF9002004490870012123
:101F2000014800F039F810BD000400400000002016
:101F30006672616D653A25640D0A00007FB504463E
:101F40000D4601210220FFF7D5FCADF8045000201A
:101F5000ADF806000294ADF80C0001A90D4800F0A0
:101F600045F8012211460B4800F036F801210948D6
:101F700000F015F81D208DF8000001208DF80100FB
:101F800003208DF8020001208DF803006846FFF75A
:101F90002FFB7FBD00040040CA430282704721B17D
:101FA000028842F00102028004E002884FF6FE73CC
:101FB0001A400280704730B50246002000230024FA
:101FC000158A05EA0103958905EA010413B10CB1EC
:101FD000012000E0002030BD1AB183890B438381CA
:101FE00002E083898B4383817047000000220288CE
:101FF000184B98420ED0184B98420BD0B0F1804F3E
:1020000008D0164B984205D0154B984202D0154B7C
:10201000984204D14FF68F731A404B881A43124BE3
:10202000984207D0114B984204D04FF6FF431A4014
:102030000B891A4302804B68C3620B880385054BEA
:10204000984202D0044B984201D18B7A0386012337
:1020500083827047000001400004014000040040FA
:1020600000080040000C0040001000400014004038
:102070000448006820B103480068401E0149086018
:10208000704700000400002000B587B00121084619
:10209000FFF700FC01214804FFF72CFC0722022176
:1020A0001D48FEF788FC072203211B48FEF783FC2E
:1020B0000820059002208DF819008DF818000020E6
:1020C0008DF81A0001208DF81B0005A91248FEF7B3
:1020D0002AFC0420059002208DF8180005A90E485E
:1020E000FEF721FC4FF4165001900020ADF80C00D3
:1020F000ADF80800ADF80A00ADF810000C20ADF8FE
:102100000E0001A9054800F025F80121034800F060
:1021100007F807B000BD0000000002400044004086
:1021200021B1828942F40052828104E082894DF615
:10213000FF731A408281704702460020B1F5007F8C
:1021400000D100BF13880B400BB1012000E000203C
:10215000704700002DE9FF4705460E460024A146C2
:1021600000BFA046B08900B100BF2C8A24F44054BF
:10217000F08804432C82AC8941F20C608443B0881F
:1021800031890843718908430443AC81AC8A24F443
:102190004074B0890443AC826846FFF7BBFB20481B
:1021A000854202D01F48854202D1DDF80C9001E043
:1021B000DDF80890A88900F4004040B109EBC9009F
:1021C00000EB091031684900B0FBF1F707E009EBBB
:1021D000C90000EB091031688900B0FBF1F76420F9
:1021E000B7FBF0F004012009642101FB1078A889F5
:1021F00000F4004040B1322000EBC800B0FBF1F029
:1022000000F00700044308E0322000EB08106421CE
:10221000B0FBF1F000F00F0004432C81BDE8FF8714
:102220000010014000140140C1F308028280704791
:1022300000BFFEE70FB4054B10B503A9044A02988E
:1022400000F018F810BC5DF814FB000075250008BC
:102250003400002002E008C8121F08C1002AFAD189
:1022600070477047002001E001C1121F002AFBD116
:10227000704700002DE9FF4F8DB09B460F46044686
:10228000002606E025280BD05A460F999047641C7B
:10229000761C20780028F5D111B03046BDE8F08FCB
:1022A0000025A8460122984900E0054314F8013FA3
:1022B000203B02FA03F00842F7D120782E2817D1EC
:1022C00014F8010F45F004052A280ED06FF02F02F4
:1022D0002078A0F1300109290AD808EB880102EB27
:1022E000410100EB0108641CF2E757F8048B641C01
:1022F00020786C280DD004DC4C2812D06A2811D12B
:1023000004E074280DD07A280CD10AE045F40015B9
:1023100007E0617845F48015814202D1641C05F51F
:102320008015641C2278692A45D008DC002AB3D0C5
:10233000582A69D0632A10D0642A08D13BE0702A59
:1023400067D0732A13D0752A5CD0782A5CD01046E7
:102350005A460F999047761CD3E017F8040B8DF876
:10236000000000208DF80100E946012003E057F845
:10237000049B4FF0FF3069074FF0000501D40AE0DD
:102380006D1C45450DDA8542FADB19F80510002968
:10239000F6D106E06D1C8542FCDB19F8051000291A
:1023A000F8D12E4404E019F8010B5A460F999047D2
:1023B0006D1EF8D2A5E00A200021CDE90801C5F381
:1023C000025002280DD001CFC117031E71F1000386
:1023D0000DDA4FF0000CD0EB0C006CEB01012D235B
:1023E00008E0FF1D27F00707F7E80201EDE72B05DE
:1023F00004D52B238DF8283001233BE0EB0739D09F
:102400002023F7E70A2000E010200021CDE9080191
:1024100007E01020002145F00405CDE908014FF048
:102420000808C5F3025002280FD001CF00214FF059
:10243000000A2B071FD5702A0DD0DDE908C38CF0E8
:10244000100C5CEA030C0CD015E0FF1D27F0070709
:10245000F7E80201EBE740228DF828204FF0010A4F
:102460000BE050EA010306D030238DF828308DF8B8
:10247000292002239A46582A04D024A20DF12009CB
:102480000B9209E026A2F9E7DDE90823FDF79FFE9C
:102490000B9B9B5C09F8013D50EA0102F4D1ADEBC6
:1024A000090020300890680701D44FF0010808990E
:1024B000884502DDA8EB010000E0002080460025F1
:1024C00006E00AA85A46405D0F9990476D1C761C9D
:1024D0005545F6DB04E030205A460F999047761CAC
:1024E000B8F10001A8F10108F5DC05E019F8010BCD
:1024F0005A460F999047761C0899481E0890002963
:10250000F4DC641CC5E600000928010030313233D8
:10251000343536373839616263646566000000001F
:102520003031323334353637383941424344454609
:10253000000000004FF47A700349086000BF0248B1
:1025400000680028FBD170470400002000B5024657
:1025500001E0FFF7EFFF101EA2F10102F9D100BD6B
:102560000349086000BF024909680029FBD1704790
:102570000400002070B504460D46E1B20548FFF79F
:1025800053FE00BF80210348FFF7D6FD0028F9D095
:10259000204670BD00440040FFF700F8FFF74CFCF8
:1025A000FEF7BEFD00F03EF8FFF76EFD42F2CF01F0
:1025B00042F20F70FFF7C2FC6420FFF7C7FF12A0C2
:1025C000FFF738FEFFF75AF898B111E04FF40071A9
:1025D0001348FEF713FA4FF49670FFF7B7FF4FF466
:1025E00000710F48FEF70CFA4FF49670FFF7AEFF3C
:1025F000ECE74FF47A70FFF7A9FF1F20FEF7CEFB40
:10260000FDF7F2FE00BFFEE70D20737461727420C7
:10261000696E6974204F56373637300D0A00000056
:10262000001402400EB518A0FEF798F80120102102
:102630001DA21F23CDE900210290DA021E210020F5
:10264000FEF774FB012010211AA21F23CDE90021FF
:1026500002904FF6E0725A210020FEF767FB01203E
:1026600010211AA21F23CDE9002102901A467821D9
:102670000020FEF75BFB40F2DC50FFF767FF40F203
:10268000DC50FFF763FF0EBD4368656E204C696147
:102690006E672054696E67206973207665727920B1
:1026A0006765656B000000006C6573746572303699
:1026B00033300000332E322720494C49393334312E
:1026C0002032343058333230000000004920776F18
:1026D000756C64206C696B6520746F2074616B6528
:1026E00020616E204D4241A3A100000010B54FF4BF
:1026F00000600E4908803220FFF732FF4FF48060FF
:102700000A4908803220FFF72BFF4FF48060074909
:10271000891C08803220FFF723FF4FF40060034933
:10272000891C08803220FFF71BFF10BD18040240EF
:102730003A0C40D0121432801716180419021A7A73
:1027400003050C003E00703A713572117300A2024D
:1027500011817A207B1C7C287D3C7E557F688076A9
:1027600081808288838F849685A386AF87C488D72B
:1027700089E813E0000010000D001428A505AB0740
:102780002475256326A59F78A068A103A6DFA7DF8F
:10279000A8F0A990AA9413E50E610F4B16021E270C
:1027A000210222912907330B350B371D3871392A45
:1027B0003C784D404E2069556B4074198D4F8E000A
:1027C0008F0090009100920096009A80B084B10C26
:1027D000B20EB382B80A431444F045344658472831
:1027E000483A59885A885B445C675D495E0E6404C8
:1027F00065206605940495086C0A6D554F805080DD
:1028000051005222535E54806E116F9F6A40014006
:10281000024013E71500550A564F589E41083F05E0
:10282000750576E14C0F770A3DC24B09C960413806
:1028300034113B02A48996009730982099309A84ED
:102840009B299C039D4C9E3F78047901C8F0790F29
:10285000C8007910C87E790AC880790BC801790C44
:10286000C80F790DC8207909C8807902C8C07903DA
:10287000C8407905C830792609023B4200000000B3
:102880000000000000000000000004040404040430
:102890000004000000140A0A00000000000000000C
:1028A000000014143F140A3F0A0A000000041E1519
:1028B00005060C14150F0400000012150D0A142C47
:1028C0002A1200000000040A0A1E1515093600002D
:1028D00000020201000000000000000000201008BB
:1028E0000808080808102000000204080808080862
:1028F0000804020000000004150E0E15040000007C
:1029000000000404041F0404040000000000000090
:10291000000000000002020100000000001F000093
:1029200000000000000000000000000000020000A5
:1029300000100808080404020202010000000E1141
:1029400011111111110E000000000406040404040A
:10295000040E000000000E1111080402011F000007
:1029600000000E11100C1010110E00000000080CD9
:102970000A0A091E0818000000001F01010F1010AC
:10298000110E000000000E09010F1111110E0000C0
:1029900000001F09080404040404000000000E11D4
:1029A000110E1111110E000000000E1111111E1058
:1029B000120E0000000000000400000000040000EF
:1029C00000000000000400000004040000201008C3
:1029D0000402040810200000000000001F00001F77
:1029E000000000000002040810201008040200008B
:1029F00000000E11110804040004000000000E1174
:102A00001915151D011E0000000004040C0A0A1E01
:102A10001233000000000F12120E1212120F0000EB
:102A200000001E1101010101110E000000000F1233
:102A300012121212120F000000001F120A0E0A02D8
:102A4000121F000000001F120A0E0A0202070000F7
:102A500000001C1201013911120C00000000331299
:102A6000121E12121233000000001F04040404049A
:102A7000041F000000003E080808080808090700B5
:102A8000000037120A060A0A123700000000070287
:102A900002020202223F000000001B1B1B1B151537
:102AA0001515000000003B1216161A1A1217000026
:102AB00000000E1111111111110E000000000F1273
:102AC000120E02020207000000000E111111111770
:102AD000190E180000000F12120E0A121237000011
:102AE00000001E1101060810110F000000001F1544
:102AF00004040404040E0000000033121212121227
:102B0000120C000000003312120A0A0C0404000028
:102B100000001515150E0A0A0A0A000000001B0A1B
:102B20000A04040A0A1B000000001B0A0A04040429
:102B3000040E000000001F0908040402121F000018
:102B4000001C04040404040404041C000002020227
:102B50000404080808100000000E08080808080807
:102B600008080E0000040A00000000000000000039
:102B700000000000000000000000003F0004000012
:102B8000000000000000000000000000000C121C0B
:102B9000123C000000000302020E1212120E00008E
:102BA00000000000001C1202021C000000001810AF
:102BB000101C1212123C000000000000000C121E3B
:102BC000021C000000003804041E0404041E00005F
:102BD00000000000003C120C021E221C0000030238
:102BE000020E121212370000000004000006040456
:102BF000040E000000000800000C08080808080780
:102C000000000302023A0A0E123700000000070417
:102C100004040404041F000000000000000F151548
:102C20001515000000000000000F121212370000FE
:102C300000000000000C1212120C00000000000046
:102C4000000F1212120E020700000000001C1212E8
:102C5000121C103800000000001B060202070000D2
:102C600000000000001E020C101E00000000000406
:102C7000040E04040418000000000000001B1212DF
:102C8000123C0000000000000037120A0C04000093
:102C9000000000000015150E0A0A000000000000E8
:102CA000001B0A040A1B0000000000000037120A83
:102CB0000C04040300000000001E0804041E0000B1
:102CC0000018080808040808080818000808080878
:102CD0000808080808080808000604040408040492
:102CE0000404060002251800000000000000000097
:102CF00000000000000000000000000000000000D4
:102D0000000000080808080808080000181800005B
:102D100000486C24120000000000000000000000C9
:102D20000000002424247F1212127F1212120000CD
:102D30000000081C2A2A0A0C1828282A2A1C08081D
:102D400000000022251515152A585454542200005D
:102D50000000000C1212120A76252911916E000053
:102D60000006060403000000000000000000000050
:102D70000040201010080808080808101020400023
:102D800000020408081010101010100808040200B7
:102D90000000000008086B1C1C6B08080000000005
:102DA00000000000080808087F0808080800000064
:102DB0000000000000000000000000000606040300
:102DC0000000000000000000FE0000000000000005
:102DD00000000000000000000000000006060000E7
:102DE0000000804040202010100808040402020067
:102DF000000000182442424242424242241800008D
:102E0000000000080E08080808080808083E00002E
:102E10000000003C4242422020100804427E000094
:102E20000000003C4242201820404042221C00008A
:102E3000000000203028242422227E202078000058
:102E40000000007E0202021A26404042221C0000BE
:102E5000000000382402021A2642424224180000D0
:102E60000000007E22221010080808080808000050
:102E70000000003C4242422418244242423C0000EE
:102E8000000000182442424264584040241C0000C4
:102E900000000000000018180000000018180000D2
:102EA0000000000000000008000000000008080406
:102EB0000000004020100804020408102040000018
:102EC0000000000000007F0000007F000000000004
:102ED0000000000204081020402010080402000036
:102EE0000000003C4242464020101000181800002C
:102EF0000000001C225A555555552D42221C000039
:102F00000000000808181414243C224242E7000084
:102F10000000001F2222221E22424242221F0000E5
:102F20000000007C4242010101010142221C00001C
:102F30000000001F2242424242424242221F000041
:102F40000000003F4212121E12120242423F0000D5
:102F50000000003F4212121E12120202020700007D
:102F60000000003C2222010101712122221C0000EC
:102F7000000000E7424242427E42424242E70000F5
:102F80000000003E0808080808080808083E00007D
:102F90000000007C10101010101010101010110FF5
:102FA0000000007722120A0E0A1212222277000075
:102FB000000000070202020202020202427F000039
:102FC00000000077363636362A2A2A2A2A6B000075
:102FD000000000E346464A4A5252526262470000ED
:102FE0000000001C2241414141414141221C00009E
:102FF0000000003F424242423E020202020700003D
:103000000000001C2241414141414D53321C6000EF
:103010000000003F4242423E1212222242C70000FC
:103020000000007C4242020418204042423E000060
:103030000000007F4908080808080808081C00006C
:10304000000000E74242424242424242423C00000B
:10305000000000E74242222424141418080800004B
:103060000000006B4949494955553622222200008B
:10307000000000E7422424181818242442E7000026
:10308000000000772222141408080808081C000019
:103090000000007E2120101008040442423F00007E
:1030A00000780808080808080808080808087800D0
:1030B00000000202040408080810102020204040EC
:1030C000001E1010101010101010101010101E0004
:1030D0000038440000000000000000000000000074
:1030E000000000000000000000000000000000FFE1
:1030F00000060800000000000000000000000000C2
:10310000000000000000003C4278444242FC000005
:10311000000000030202021A26424242261A000060
:1031200000000000000000384402020244380000A1
:1031300000000060404040784442424264D80000B1
:10314000000000000000003C427E0202423C000001
:10315000000000F08808087E08080808083E000003
:10316000000000000000007C22221C023C42423C85
:10317000000000030202023A4642424242E70000D7
:103180000000000C0C00000E08080808083E0000B3
:103190000000003030000038202020202020221E97
:1031A0000000000302020272120A161222770000C7
:1031B0000000000E0808080808080808083E00007B
:1031C000000000000000007F9292929292B70000EF
:1031D000000000000000003B4642424242E700007F
:1031E000000000000000003C42424242423C00001D
:1031F000000000000000001B26424242221E02077F
:10320000000000000000007844424242447840E060
:1032100000000000000000774C040404041F0000BC
:10322000000000000000007C42023C40423E0000E2
:10323000000000000008083E0808080808300000E8
:1032400000000000000000634242424262DC0000D5
:1032500000000000000000E74224241408080000D9
:1032600000000000000000EB4949555522220000F3
:10327000000000000000007624181818246E0000DA
:1032800000000000000000E742242414180808078A
:10329000000000000000007E22100808447E0000AC
:1032A00000C0202020202010202020202020C0002E
:1032B000101010101010101010101010101010100E
:1032C000000608080808081008080808080806008A
:1032D0000C32C200000000000000000000000000EE
:1032E000C9EE000027FC140414A4811042084040D9
:1032F000104017FC2040E0E0215022482C4620409E
:103300000040DBDA11041124112411241124FD24BE
:10331000112411241124112411241D24E1244224F8
:1033200002040404CAD00200010000007FFC010076
:10333000010001003FF82108210821082108212867
:10334000211001000100C8AB000000000180024014
:103350000430180860061FF90100010001003FF861
:103360000100010001007FFEB6AF00000000002058
:103370003E20007C002200227F22102210221222F6
:103380001222224223423D82009CB5E70000010048
:1033900001001FF0610C410441047FFC4104410421
:1033A00041047FFC01000102010201FCD7D30000AF
:1033B00000003FF8001000600080010000807FFEE8
:1033C0000040004000200020002018400780BCBCC6
:1033D00010201020102013FEFC201020102015FCBF
:1033E00018843088D048105010201050518826067C
:1033F000CAF501000120011001107FFC0380054087
:10340000054009201110210841048102010001003A
:103410000100D3D002000200FFFE040004000FF000
:10342000081018102FF0481088100FF0081008101E
:1034300008500820CFDE00007BF84A08520853F8F5
:10344000620852084BF84A444A486A3052204210F7
:10345000428843064200B9AB0080048004800840E3
:103460000840102020104208820604000440082072
:1034700010203FF010100000CBBE00003FF8000805
:1034800000087FE8000800081F881088108810884E
:1034900010881F88108800280010BBB600800080AC
:1034A000FC8004FC050449082A401440104028A070
:1034B00024A045108110020804040802D3AD0000C6
:1034C0002080133C122402240224F2241224122409
:1034D00012B4132812201020282047FE0000C4FA3E
:1034E0000900090011FC3204544899501148124453
:1034F00014441140108002005104511290120FF038
:10350000B4BF00000020102013FE202026244A24EF
:103510007A241224222423FC7C20002204227822F4
:10352000003CC9AB0000000004000FF01020202078
:103530007FFC20842084208420843FF82000200207
:1035400020021FFECCEE00000000204023FE2040A1
:1035500079FC220423FC220423FC220423FC3A04E9
:1035600065FA01980204B3E40000010001007FFE47
:1035700002200410040808043FFC044204400440F4
:10358000044208421042607EBED800000000207E47
:103590003E804880488048FE48827F8208820C82B4
:1035A00014FA12842280218040FED0CE0000000058
:1035B0007F842208223022C0220222047FC82230C7
:1035C00022C222022204220822304040BBAD000069
:1035D00000007FFE00000FF01110111011105112A9
:1035E0005FF25112511251124FF240027FFCD4B2DD
:1035F000000000007FFE47E24812481247E24FF207
:10360000501250125112511242924472580A3FFC09
:10361000CDBC000000003FFE440247F24C22536242
:10362000408243625E1A41824062430240C24022AD
:103630003FFCC6AC000000402040204020403FFE40
:103640002000200020003FE020102010201020103B
:1036500040104010CFD4000000003FFC20042004A4
:103660003FFC200420041FF8244414481448144844
:103670000C5004407FFECABE000000003FFC00006A
:10368000000000007FFE00800890088810881084E9
:103690002084208240820780B2CB000000200820D6
:1036A0007FFE002000783F881108089009207FFEE7
:1036B000018003400D30310C4002B5A50000001020
:1036C000081004203FF8210421043FFC21042104B8
:1036D0003FF801007FFE010001000100D6D000008C
:1036E0000100010001003FFC210421042104210408
:1036F000210421043FFC0100010001000100D3A2CC
:103700000000000008207FFE0820092001003FF88B
:103710002108210821081FF4014002200C10700E1E
:10372000CEC400000100010000803F7C081008109A
:1037300004100420022002400180018002601C1855
:10374000E006D7DB00000000102011FE220222025A
:1037500049FC5800300013FE2528792401240D244B
:10376000722202A2BACF00000000018002400430A1
:10377000180860061FF800001FF820042004200429
:10378000200420041FF8C1C10000010001007FFED9
:1037900000003FF820083FF83FF8400647C24824A1
:1037A000082008221022603EB6C8000000000080F9
:1037B0003FFE44105FFC4410441043F040005FF8AB
:1037C0004408423041C04360BC1EB2E20000000029
:1037D00067C2145205520552C55225520552055270
:1037E00015521752228222424442483ECAD4000057
:1037F00000002014101417FE00120010601013F0C7
:10380000109010901090149214EA1F0A0006B3CC86
:103810000000000019FE7202120212027DFC180064
:103820001BFE3420502053FE10201020102013FEC9
:10383000D0F20000000000803FFE400047FC42083C
:10384000413040C05FFE404240424044404840401A
:103850004440B5F70000000023FE122202FA0222C3
:10386000E22212FE1272128A128A128A16BA1A42C0
:103870001202040EB9E20000010001041108090857
:10388000091009207FFE044004400440044008421F
:1038900008421042607CB0E60000000048FE49008B
:1038A000490049007EFE418241447944452845282B
:1038B0004510452846440382C8A8000010001000A7
:1038C00013FC7D04110419041884348850485050A6
:1038D00010201050108813041402CBF900000000CF
:1038E0003F7C204020403E40227E2244224422440D
:1038F0003E8420842084408441044204C9EE0000B8
:10390000000000001000000800080C7FFC044010BC
:1039100001C8A002186042301832231812C30014E4
:10392000030004030C047FF0080F80080B40781399
:103930006018332018631818831C19030818030033
:10394000000300000000DBDA0000000000000410AB
:103950000C04180C04108C04108C04108C04108CB3
:1039600004D08C3F108C04108C04108C04108C0438
:10397000108C04108C04108C05F08C0E208C782098
:103980008C20408C00808C01000C02000C00000098
:10399000CAD000000000000000300000180000182D
:1039A0000800001C1FFFE000180000182007FFF0AF
:1039B00004182004182004182004182004182004D7
:1039C00018200418200418200418200418E00418F3
:1039D00040001800001800000000D6D000000000D1
:1039E000000000000000000000180000180000188F
:1039F000000018003FFFFE30180630180630180689
:103A00003018063018063FFFFE3018060018000078
:103A10001800001800001800001800000000000046
:103A200000000000CEC40000000000000000000004
:103A30003800001C00000600FFFFFF0600300600F3
:103A4000300300600300600180C000C18000E3001B
:103A5000003600001C0000770003C1E01E003C603F
:103A60000007000000000000000000000000B2E2BB
:103A700000000000000000000000000040000321E2
:103A8000FF33398333118333019B33C19B33719BE4
:103A900033199B33019B33019B33119B3319B33390
:103AA000303033306C0330C6036383032E01BE0015
:103AB0000000000000000000CAD400000000000068
:103AC0000000000000004000D83000CE1800C21CEA
:103AD00000C001FFFF0000C0F800C01800C019FFBF
:103AE000C01818401818601918601B18611E18318A
:103AF0001C1FB139F01910000F0000000000000079
:103B00000000D7D6000000000006000000030000FF
:103B10000000C0000001C0C0000107C00001FF009C
:103B2000021FFE0007F01C0007C070000F00E0003D
:103B30000E03F0001C0FF0003C0F70003C00E00092
:103B40001800C0000000C0000000C00000006000BD
:103B500000002000000037000001FF00007FF80097
:103B600007F830001F8030000080300000C03000B7
:103B7000006060000018E000000FC00000060000B8
:103B800000000000CCE50000000000000000000084
:103B900000C0000000E0002001B800703FF80061A4
:103BA000FFC000C3030001C60600038C0600030823
:103BB0000C0006080C000E18183F1E101BF31F9077
:103BC0003F0700803C1C0190707C019060FE01A0CA
:103BD000C3F801A00FD803A0081803600018034021
:103BE000001803C00018038000180300001800002C
:103BF000001800000010000000300000003000003D
:103C0000000000000000B2E2000000000000000020
:103C10000000000000000000020C1008071FF8045C
:103C200003BFF00201BC300303EC3003015C60030E
:103C300000D8600300D860038098620361B843072E
:103C400071B14306313243063376C3063A64C70680
:103C50003EECC0063E78C0063C3040067C70000654
:103C600078E060067BFFF006F7C00006E40000067F
:103C700040000006000000060000007C00008FF0FD
:103C800000007C0000000000CAD40000000000001A
:103C900000000000000000003F0000007F800000E6
:103CA0000180000000C0000000C0000000CE0380C2
:103CB00000CFFFC000DD41800FFE0007FFFC000CBD
:103CC00000F000180FC03E19FF40F311BC608330B4
:103CD0007FE003B1FE2003338020037000300360D7
:103CE00000100360001807C0000C07C00004078024
:103CF00000020100000300000001000000000000BD
:103D00000000000000000000000000002C3D000842
:103D1000000000203800000054220008643D000824
:103D20003800002010040000642200080000000099
:103D3000000000000000FFFF000000000000010282
:103D4000030401020304060708090000007A030ABD
:103D5000000000000000000001020304060708093B
:043D6000000000005F
:040000050800018965
:00000001FF
